{
  "_format": "hh-sol-artifact-1",
  "contractName": "GameAssetVault",
  "sourceName": "contracts/GameAssetVault.sol",
  "abi": [
    {
      "inputs": [
        {
          "internalType": "address",
          "name": "user",
          "type": "address"
        }
      ],
      "name": "getAssets",
      "outputs": [
        {
          "internalType": "string[]",
          "name": "",
          "type": "string[]"
        }
      ],
      "stateMutability": "view",
      "type": "function"
    },
    {
      "inputs": [
        {
          "internalType": "string",
          "name": "cid",
          "type": "string"
        }
      ],
      "name": "saveAsset",
      "outputs": [],
      "stateMutability": "nonpayable",
      "type": "function"
    },
    {
      "inputs": [
        {
          "internalType": "address",
          "name": "",
          "type": "address"
        },
        {
          "internalType": "uint256",
          "name": "",
          "type": "uint256"
        }
      ],
      "name": "userAssets",
      "outputs": [
        {
          "internalType": "string",
          "name": "",
          "type": "string"
        }
      ],
      "stateMutability": "view",
      "type": "function"
    }
  ],
  "bytecode": "0x608060405234801561001057600080fd5b50610a8d806100206000396000f3fe608060405234801561001057600080fd5b50600436106100415760003560e01c80636a8a69aa14610046578063742978da1461007657806394a7418c146100a6575b600080fd5b610060600480360381019061005b91906103ae565b6100c2565b60405161006d919061047e565b60405180910390f35b610090600480360381019061008b91906104a0565b61017b565b60405161009d91906105d9565b60405180910390f35b6100c060048036038101906100bb9190610730565b610292565b005b600060205281600052604060002081815481106100de57600080fd5b906000526020600020016000915091505080546100fa906107a8565b80601f0160208091040260200160405190810160405280929190818152602001828054610126906107a8565b80156101735780601f1061014857610100808354040283529160200191610173565b820191906000526020600020905b81548152906001019060200180831161015657829003601f168201915b505050505081565b60606000808373ffffffffffffffffffffffffffffffffffffffff1673ffffffffffffffffffffffffffffffffffffffff168152602001908152602001600020805480602002602001604051908101604052809291908181526020016000905b828210156102875783829060005260206000200180546101fa906107a8565b80601f0160208091040260200160405190810160405280929190818152602001828054610226906107a8565b80156102735780601f1061024857610100808354040283529160200191610273565b820191906000526020600020905b81548152906001019060200180831161025657829003601f168201915b5050505050815260200190600101906101db565b505050509050919050565b6000803373ffffffffffffffffffffffffffffffffffffffff1673ffffffffffffffffffffffffffffffffffffffff168152602001908152602001600020819080600181540180825580915050600190039060005260206000200160009091909190915090816103029190610985565b5050565b6000604051905090565b600080fd5b600080fd5b600073ffffffffffffffffffffffffffffffffffffffff82169050919050565b60006103458261031a565b9050919050565b6103558161033a565b811461036057600080fd5b50565b6000813590506103728161034c565b92915050565b6000819050919050565b61038b81610378565b811461039657600080fd5b50565b6000813590506103a881610382565b92915050565b600080604083850312156103c5576103c4610310565b5b60006103d385828601610363565b92505060206103e485828601610399565b9150509250929050565b600081519050919050565b600082825260208201905092915050565b60005b8381101561042857808201518184015260208101905061040d565b60008484015250505050565b6000601f19601f8301169050919050565b6000610450826103ee565b61045a81856103f9565b935061046a81856020860161040a565b61047381610434565b840191505092915050565b600060208201905081810360008301526104988184610445565b905092915050565b6000602082840312156104b6576104b5610310565b5b60006104c484828501610363565b91505092915050565b600081519050919050565b600082825260208201905092915050565b6000819050602082019050919050565b600082825260208201905092915050565b6000610515826103ee565b61051f81856104f9565b935061052f81856020860161040a565b61053881610434565b840191505092915050565b600061054f838361050a565b905092915050565b6000602082019050919050565b600061056f826104cd565b61057981856104d8565b93508360208202850161058b856104e9565b8060005b858110156105c757848403895281516105a88582610543565b94506105b383610557565b925060208a0199505060018101905061058f565b50829750879550505050505092915050565b600060208201905081810360008301526105f38184610564565b905092915050565b600080fd5b600080fd5b7f4e487b7100000000000000000000000000000000000000000000000000000000600052604160045260246000fd5b61063d82610434565b810181811067ffffffffffffffff8211171561065c5761065b610605565b5b80604052505050565b600061066f610306565b905061067b8282610634565b919050565b600067ffffffffffffffff82111561069b5761069a610605565b5b6106a482610434565b9050602081019050919050565b82818337600083830152505050565b60006106d36106ce84610680565b610665565b9050828152602081018484840111156106ef576106ee610600565b5b6106fa8482856106b1565b509392505050565b600082601f830112610717576107166105fb565b5b81356107278482602086016106c0565b91505092915050565b60006020828403121561074657610745610310565b5b600082013567ffffffffffffffff81111561076457610763610315565b5b61077084828501610702565b91505092915050565b7f4e487b7100000000000000000000000000000000000000000000000000000000600052602260045260246000fd5b600060028204905060018216806107c057607f821691505b6020821081036107d3576107d2610779565b5b50919050565b60008190508160005260206000209050919050565b60006020601f8301049050919050565b600082821b905092915050565b60006008830261083b7fffffffffffffffffffffffffffffffffffffffffffffffffffffffffffffffff826107fe565b61084586836107fe565b95508019841693508086168417925050509392505050565b6000819050919050565b600061088261087d61087884610378565b61085d565b610378565b9050919050565b6000819050919050565b61089c83610867565b6108b06108a882610889565b84845461080b565b825550505050565b600090565b6108c56108b8565b6108d0818484610893565b505050565b5b818110156108f4576108e96000826108bd565b6001810190506108d6565b5050565b601f8211156109395761090a816107d9565b610913846107ee565b81016020851015610922578190505b61093661092e856107ee565b8301826108d5565b50505b505050565b600082821c905092915050565b600061095c6000198460080261093e565b1980831691505092915050565b6000610975838361094b565b9150826002028217905092915050565b61098e826103ee565b67ffffffffffffffff8111156109a7576109a6610605565b5b6109b182546107a8565b6109bc8282856108f8565b600060209050601f8311600181146109ef57600084156109dd578287015190505b6109e78582610969565b865550610a4f565b601f1984166109fd866107d9565b60005b82811015610a2557848901518255600182019150602085019450602081019050610a00565b86831015610a425784890151610a3e601f89168261094b565b8355505b6001600288020188555050505b50505050505056fea264697066735822122066f134d85512e2f04e71efcf84c999969567603f033908089ef650946b22b2f464736f6c63430008140033",
  "linkReferences": {},
  "deployedLinkReferences": {}
}