{
  "_format": "hh-sol-artifact-1",
  "contractName": "GameAssetVault",
  "sourceName": "contracts/GameAssetVault.sol",
  "abi": [
    {
      "inputs": [
        {
          "internalType": "string",
          "name": "cid",
          "type": "string"
        }
      ],
      "name": "deleteAsset",
      "outputs": [
        {
          "internalType": "bool",
          "name": "",
          "type": "bool"
        }
      ],
      "stateMutability": "nonpayable",
      "type": "function"
    },
    {
      "inputs": [
        {
          "internalType": "address",
          "name": "user",
          "type": "address"
        }
      ],
      "name": "getAssets",
      "outputs": [
        {
          "internalType": "string[]",
          "name": "",
          "type": "string[]"
        }
      ],
      "stateMutability": "view",
      "type": "function"
    },
    {
      "inputs": [
        {
          "internalType": "string",
          "name": "cid",
          "type": "string"
        }
      ],
      "name": "saveAsset",
      "outputs": [],
      "stateMutability": "nonpayable",
      "type": "function"
    },
    {
      "inputs": [
        {
          "internalType": "address",
          "name": "",
          "type": "address"
        },
        {
          "internalType": "uint256",
          "name": "",
          "type": "uint256"
        }
      ],
      "name": "userAssets",
      "outputs": [
        {
          "internalType": "string",
          "name": "",
          "type": "string"
        }
      ],
      "stateMutability": "view",
      "type": "function"
    }
  ],
  "bytecode": "0x608060405234801561001057600080fd5b50610fd7806100206000396000f3fe608060405234801561001057600080fd5b506004361061004c5760003560e01c80636a8a69aa14610051578063742978da1461008157806394a7418c146100b1578063e24aa37c146100cd575b600080fd5b61006b600480360381019061006691906105b8565b6100fd565b6040516100789190610688565b60405180910390f35b61009b600480360381019061009691906106aa565b6101b6565b6040516100a891906107e3565b60405180910390f35b6100cb60048036038101906100c6919061093a565b6102cd565b005b6100e760048036038101906100e2919061093a565b610341565b6040516100f4919061099e565b60405180910390f35b6000602052816000526040600020818154811061011957600080fd5b90600052602060002001600091509150508054610135906109e8565b80601f0160208091040260200160405190810160405280929190818152602001828054610161906109e8565b80156101ae5780601f10610183576101008083540402835291602001916101ae565b820191906000526020600020905b81548152906001019060200180831161019157829003601f168201915b505050505081565b60606000808373ffffffffffffffffffffffffffffffffffffffff1673ffffffffffffffffffffffffffffffffffffffff168152602001908152602001600020805480602002602001604051908101604052809291908181526020016000905b828210156102c2578382906000526020600020018054610235906109e8565b80601f0160208091040260200160405190810160405280929190818152602001828054610261906109e8565b80156102ae5780601f10610283576101008083540402835291602001916102ae565b820191906000526020600020905b81548152906001019060200180831161029157829003601f168201915b505050505081526020019060010190610216565b505050509050919050565b6000803373ffffffffffffffffffffffffffffffffffffffff1673ffffffffffffffffffffffffffffffffffffffff1681526020019081526020016000208190806001815401808255809150506001900390600052602060002001600090919091909150908161033d9190610bc5565b5050565b6000806000803373ffffffffffffffffffffffffffffffffffffffff1673ffffffffffffffffffffffffffffffffffffffff168152602001908152602001600020905060008180549050905060005b818110156104a65784805190602001208382815481106103b3576103b2610c97565b5b906000526020600020016040516103ca9190610d69565b6040518091039020036104935760008190505b6001836103ea9190610daf565b81101561045757836001826103ff9190610de3565b815481106104105761040f610c97565b5b9060005260206000200184828154811061042d5761042c610c97565b5b9060005260206000200190816104439190610e42565b50808061044f90610f2a565b9150506103dd565b508280548061046957610468610f72565b5b60019003818190600052602060002001600061048591906104b3565b9055600193505050506104ae565b808061049e90610f2a565b915050610390565b506000925050505b919050565b5080546104bf906109e8565b6000825580601f106104d157506104f0565b601f0160209004906000526020600020908101906104ef91906104f3565b5b50565b5b8082111561050c5760008160009055506001016104f4565b5090565b6000604051905090565b600080fd5b600080fd5b600073ffffffffffffffffffffffffffffffffffffffff82169050919050565b600061054f82610524565b9050919050565b61055f81610544565b811461056a57600080fd5b50565b60008135905061057c81610556565b92915050565b6000819050919050565b61059581610582565b81146105a057600080fd5b50565b6000813590506105b28161058c565b92915050565b600080604083850312156105cf576105ce61051a565b5b60006105dd8582860161056d565b92505060206105ee858286016105a3565b9150509250929050565b600081519050919050565b600082825260208201905092915050565b60005b83811015610632578082015181840152602081019050610617565b60008484015250505050565b6000601f19601f8301169050919050565b600061065a826105f8565b6106648185610603565b9350610674818560208601610614565b61067d8161063e565b840191505092915050565b600060208201905081810360008301526106a2818461064f565b905092915050565b6000602082840312156106c0576106bf61051a565b5b60006106ce8482850161056d565b91505092915050565b600081519050919050565b600082825260208201905092915050565b6000819050602082019050919050565b600082825260208201905092915050565b600061071f826105f8565b6107298185610703565b9350610739818560208601610614565b6107428161063e565b840191505092915050565b60006107598383610714565b905092915050565b6000602082019050919050565b6000610779826106d7565b61078381856106e2565b935083602082028501610795856106f3565b8060005b858110156107d157848403895281516107b2858261074d565b94506107bd83610761565b925060208a01995050600181019050610799565b50829750879550505050505092915050565b600060208201905081810360008301526107fd818461076e565b905092915050565b600080fd5b600080fd5b7f4e487b7100000000000000000000000000000000000000000000000000000000600052604160045260246000fd5b6108478261063e565b810181811067ffffffffffffffff821117156108665761086561080f565b5b80604052505050565b6000610879610510565b9050610885828261083e565b919050565b600067ffffffffffffffff8211156108a5576108a461080f565b5b6108ae8261063e565b9050602081019050919050565b82818337600083830152505050565b60006108dd6108d88461088a565b61086f565b9050828152602081018484840111156108f9576108f861080a565b5b6109048482856108bb565b509392505050565b600082601f83011261092157610920610805565b5b81356109318482602086016108ca565b91505092915050565b6000602082840312156109505761094f61051a565b5b600082013567ffffffffffffffff81111561096e5761096d61051f565b5b61097a8482850161090c565b91505092915050565b60008115159050919050565b61099881610983565b82525050565b60006020820190506109b3600083018461098f565b92915050565b7f4e487b7100000000000000000000000000000000000000000000000000000000600052602260045260246000fd5b60006002820490506001821680610a0057607f821691505b602082108103610a1357610a126109b9565b5b50919050565b60008190508160005260206000209050919050565b60006020601f8301049050919050565b600082821b905092915050565b600060088302610a7b7fffffffffffffffffffffffffffffffffffffffffffffffffffffffffffffffff82610a3e565b610a858683610a3e565b95508019841693508086168417925050509392505050565b6000819050919050565b6000610ac2610abd610ab884610582565b610a9d565b610582565b9050919050565b6000819050919050565b610adc83610aa7565b610af0610ae882610ac9565b848454610a4b565b825550505050565b600090565b610b05610af8565b610b10818484610ad3565b505050565b5b81811015610b3457610b29600082610afd565b600181019050610b16565b5050565b601f821115610b7957610b4a81610a19565b610b5384610a2e565b81016020851015610b62578190505b610b76610b6e85610a2e565b830182610b15565b50505b505050565b600082821c905092915050565b6000610b9c60001984600802610b7e565b1980831691505092915050565b6000610bb58383610b8b565b9150826002028217905092915050565b610bce826105f8565b67ffffffffffffffff811115610be757610be661080f565b5b610bf182546109e8565b610bfc828285610b38565b600060209050601f831160018114610c2f5760008415610c1d578287015190505b610c278582610ba9565b865550610c8f565b601f198416610c3d86610a19565b60005b82811015610c6557848901518255600182019150602085019450602081019050610c40565b86831015610c825784890151610c7e601f891682610b8b565b8355505b6001600288020188555050505b505050505050565b7f4e487b7100000000000000000000000000000000000000000000000000000000600052603260045260246000fd5b600081905092915050565b60008190508160005260206000209050919050565b60008154610cf3816109e8565b610cfd8186610cc6565b94506001821660008114610d185760018114610d2d57610d60565b60ff1983168652811515820286019350610d60565b610d3685610cd1565b60005b83811015610d5857815481890152600182019150602081019050610d39565b838801955050505b50505092915050565b6000610d758284610ce6565b915081905092915050565b7f4e487b7100000000000000000000000000000000000000000000000000000000600052601160045260246000fd5b6000610dba82610582565b9150610dc583610582565b9250828203905081811115610ddd57610ddc610d80565b5b92915050565b6000610dee82610582565b9150610df983610582565b9250828201905080821115610e1157610e10610d80565b5b92915050565b600081549050610e26816109e8565b9050919050565b60008190508160005260206000209050919050565b818103610e50575050610f28565b610e5982610e17565b67ffffffffffffffff811115610e7257610e7161080f565b5b610e7c82546109e8565b610e87828285610b38565b6000601f831160018114610eb65760008415610ea4578287015490505b610eae8582610ba9565b865550610f21565b601f198416610ec487610e2d565b9650610ecf86610a19565b60005b82811015610ef757848901548255600182019150600185019450602081019050610ed2565b86831015610f145784890154610f10601f891682610b8b565b8355505b6001600288020188555050505b5050505050505b565b6000610f3582610582565b91507fffffffffffffffffffffffffffffffffffffffffffffffffffffffffffffffff8203610f6757610f66610d80565b5b600182019050919050565b7f4e487b7100000000000000000000000000000000000000000000000000000000600052603160045260246000fdfea2646970667358221220070ba61b9a9dc414a780b8eb498e407123887f3091afa72854fb3192cbc1ca7b64736f6c63430008140033",
  "linkReferences": {},
  "deployedLinkReferences": {}
}